:100000000C942A000C9447000C9447000C94470071
:100010000C94040B0C94DD0A0C9447000C944700DC
:100020000C94B60A0C948F0A0C94680A0C94410A3A
:100030000C9447000C943D0B0C9447000C94470023
:100040000C9447000C9447000C9447000C94470014
:100050000C94470011241FBECFE5D8E0DEBFCDBF12
:1000600012E0A0E6B0E0E2E4FBE102C005900D92F0
:10007000A230B107D9F722E0A2E0B2E001C01D92A0
:10008000A531B207E1F70E9449000C949F0D0C9432
:1000900000000E946D0081E00E94BB078CEA90E0A6
:1000A0000E94F4070E94480681E00E94BB078DEB86
:1000B00090E00E94F4072FEF89E698E121508040FC
:1000C0009040E1F700C0000086EC90E00E94F40749
:1000D00081E192E00E945F04E5CF0E948E0660EF0E
:1000E00080E00E94F5096FE081E00E94F5090E941E
:1000F000D5070E942B0B0E94050A0E94C00840E011
:1001000060E080E00E94E10841E063E081E00E945D
:10011000E10841E065E083E00E94E1080E94830875
:1001200041E062E083E00E94E10841E063E083E0B7
:100130000E94E10841E064E081E00E94E10841E0C2
:1001400065E081E00E94E10841E066E081E00E9414
:10015000E10841E067E081E00E94E10808950E9423
:10016000E1068F3FE1F3089581E00E94BB0720E0A4
:100170004AE060E870E080E00E940F0820E049E07B
:1001800068E770E081E00E940F0820E048E060E747
:1001900070E084E00E940F0820E047E068E670E02D
:1001A00082E00E940F0820E046E060E670E083E015
:1001B0000E940F0860E085E00E94070881E20E942B
:1001C000A10760E084E00E94070881E20E94A10785
:1001D0001092030241E063E080E00E9454090E9413
:1001E000AF008334E1F740E063E080E00E9454090F
:1001F000089580E00E94D008BC0180E090E00E9459
:100200005A0C20E030E04AEF53E40E94E80C20E072
:1002100030EC4FE754E40E94B90B2FEF36E741E092
:10022000215030404040E1F700C000000E942B0CFC
:1002300008950E94F9006C3171058105910530F037
:1002400062E08CE30E94090A8CE3089562E080E09A
:100250000E94090A80E00895CF93DF93C82F81E0C0
:100260000E94BB07D0E0DD2331F181E00E94BB0793
:1002700060E080E00E9407088AEC90E00E94F407AA
:1002800060E087E00E94070881ED90E00E94F4079B
:1002900061E080E00E94070889ED90E00E94F40789
:1002A00061E087E00E94070880EE90E00E94F4077A
:1002B0000E94390BC82FC43451F481E00E94BB075F
:1002C00089EE90E00E94F407D1E0C0E04FC1C43550
:1002D00079F581E00E94BB0787EF90E00E94F40768
:1002E00061E080E00E9407088DEF90E00E94F40733
:1002F00060E085E00E9407080E94F9000E9439082A
:1003000061E083E00E9407080E941901682F70E0F5
:1003100080E090E00E94390861E086E00E940708D2
:1003200081E091E00E94F407C43511F3D1E01EC1D1
:10033000CC3409F0B9C081E00E94BB078CE091E0A9
:100340000E94F40761E080E00E94070889E191E0E3
:100350000E94F4070E94390BC82F813309F04FC067
:1003600081E00E94BB0788E291E00E94F4070E94AE
:10037000390BD82F8333B9F028F4813341F082331D
:1003800061F023C08433A9F08533C9F01EC041E079
:1003900062E083E00E9454091FC041E063E083E013
:1003A0000E94540919C041E064E081E00E945409B0
:1003B00013C041E065E081E00E9454090DC041E0B6
:1003C00066E081E00E94540907C081E00E94BB07FB
:1003D0008CE391E00E94F40781E00E94BB0788E46F
:1003E00091E00E94F4078D2F0E94A1072FEF83EC6C
:1003F00099E0215080409040E1F700C00000C233F6
:1004000009F0B2C081E00E94BB078EE491E00E9437
:10041000F4070E94390BC82F8333B9F028F48133D5
:1004200041F0823361F023C08433A9F08533C9F0F1
:100430001EC040E062E083E00E9454091FC040E01B
:1004400063E083E00E94540919C040E064E081E069
:100450000E94540913C040E065E081E00E94540905
:100460000DC040E066E081E00E94540907C081E0D1
:100470000E94BB078CE391E00E94F40781E00E9498
:10048000BB0788E491E00E94F4078C2F0E94A1072B
:100490002FEF83EC99E0215080409040E1F700C0BD
:1004A0000000D1E0C0E062C0C13509F05FC055C0B6
:1004B00090910202911127C081E00E94BB0760E089
:1004C00080E00E94070880E691E00E94F40761E066
:1004D00080E00E9407088FE691E00E94F40741E067
:1004E00067E081E00E9454092FEF89E698E12150EE
:1004F00080409040E1F700C0000081E0809302025C
:10050000D1E0C0E033C0913031F581E00E94BB07FB
:1005100060E080E00E94070880E691E00E94F40716
:1005200061E080E00E94070884E291E00E94F40705
:1005300040E067E081E00E9454092FEF89E698E1EE
:10054000215080409040E1F700C00000109202026C
:10055000D1E0C0E00BC08F5F01C081E0833008F4C0
:10056000A7CFD1E0C0E002C0D1E0C0E0C33409F0C1
:100570007ACEDF91CF910895CF93DF93C82FD0E04B
:10058000DD2331F181E00E94BB0760E080E00E9442
:1005900007088AEC90E00E94F40760E087E00E9480
:1005A000070881ED90E00E94F40761E080E00E947E
:1005B000070889ED90E00E94F40761E087E00E945F
:1005C000070880EE90E00E94F4070E94390BC82FC4
:1005D000C43401F581E00E94BB0782E791E00E94EC
:1005E000F4078AE50E94A0082FEF87E893E12150E5
:1005F00080409040E1F700C0000081E00E94BB070E
:1006000080E891E00E94F40780E00E94A008D1E019
:10061000C0E04FC1C43579F581E00E94BB0787EF88
:1006200090E00E94F40761E080E00E9407088DEFEF
:1006300090E00E94F40760E085E00E9407080E94B5
:10064000F9000E94390861E083E00E9407080E94D7
:100650001901682F70E080E090E00E94390861E0A5
:1006600086E00E94070881E091E00E94F407C4350B
:1006700011F3D1E01EC1CC3409F0B9C081E00E9471
:10068000BB078CE091E00E94F40761E080E00E94EB
:10069000070889E191E00E94F4070E94390BC82FF6
:1006A000813309F04FC081E00E94BB0788E291E0EE
:1006B0000E94F4070E94390BD82F8333B9F028F435
:1006C000813341F0823361F023C08433A9F0853354
:1006D000C9F01EC041E062E083E00E9454091FC0DF
:1006E00041E063E083E00E94540919C041E064E006
:1006F00081E00E94540913C041E065E081E00E945E
:1007000054090DC041E066E081E00E94540907C031
:1007100081E00E94BB078CE391E00E94F40781E036
:100720000E94BB0788E491E00E94F4078D2F0E948D
:10073000A1072FEF83EC99E0215080409040E1F732
:1007400000C00000C23309F0B2C081E00E94BB07C4
:100750008EE491E00E94F4070E94390BC82F833386
:10076000B9F028F4813341F0823361F023C084333F
:10077000A9F08533C9F01EC040E062E083E00E942A
:1007800054091FC040E063E083E00E94540919C08F
:1007900040E064E081E00E94540913C040E065E05D
:1007A00081E00E9454090DC040E066E081E00E94B3
:1007B000540907C081E00E94BB078CE391E00E94CE
:1007C000F40781E00E94BB0788E491E00E94F407EF
:1007D0008C2F0E94A1072FEF83EC99E021508040DD
:1007E0009040E1F700C00000D1E0C0E062C0C13538
:1007F00009F05FC055C090910202911127C081E0BD
:100800000E94BB0760E080E00E94070880E691E05C
:100810000E94F40761E080E00E9407088FE691E003
:100820000E94F40741E067E081E00E9454092FEF45
:1008300089E698E1215080409040E1F700C0000037
:1008400081E080930202D1E0C0E033C0913031F505
:1008500081E00E94BB0760E080E00E94070880E61C
:1008600091E00E94F40761E080E00E94070884E2C2
:1008700091E00E94F40740E067E081E00E945409A3
:100880002FEF89E698E1215080409040E1F700C0C9
:10089000000010920202D1E0C0E00BC08F5F01C0E7
:1008A00081E0833008F4A7CFD1E0C0E002C0D1E0FE
:1008B000C0E0C33409F064CEDF91CF910895CF93A7
:1008C000DF93EC0181E00E94BB072FEF81EE94E003
:1008D000215080409040E1F700C0000030E0988156
:1008E0008091980098134FC0998180919900981336
:1008F0004AC09A8180919A00981345C09B8180914B
:100900009B00981340C081E00E94BB078DE891E0F6
:100910000E94F4072FEF89E698E121508040904033
:10092000E1F700C0000081E00E94BB0760E080E0CA
:100930000E9407088AEC90E00E94F40760E087E0DC
:100940000E94070881ED90E00E94F40761E080E0DA
:100950000E94070889ED90E00E94F40761E087E0BB
:100960000E94070880EE90E00E94F4070E94390B75
:100970000E94BC0281E00E94BB070E94390B8334B5
:1009800009F483C131E0888190919400891350C0AB
:1009900029819091950029134BC02A81909196004E
:1009A000291346C02B8190919700291341C01092C2
:1009B000030281E00E94BB078AE991E00E94F407EC
:1009C0002FEF89E698E1215080409040E1F700C088
:1009D000000081E00E94BB0760E080E00E94070801
:1009E0008AEC90E00E94F40760E087E00E9407082C
:1009F00081ED90E00E94F40761E080E00E9407082A
:100A000089ED90E00E94F40761E087E00E9407080A
:100A100080EE90E00E94F4070E94390B0E942C01A6
:100A20000E94390B8334E1F781E00E94BB072DC19E
:100A300090919000891350C02981909191002913C1
:100A40004BC02A8190919200291346C02B8190912E
:100A50009300291341C01092030281E00E94BB075A
:100A600087EA91E00E94F4072FEF89E698E1215090
:100A700080409040E1F700C0000081E00E94BB0789
:100A800060E080E00E9407088AEC90E00E94F40792
:100A900060E087E00E94070881ED90E00E94F40783
:100AA00061E080E00E94070889ED90E00E94F40771
:100AB00061E087E00E94070880EE90E00E94F40762
:100AC0000E94390B0E942C010E94390B8334E1F7FC
:100AD00081E00E94BB07D9C090918C00891350C05F
:100AE000298190918D0029134BC02A8190918E000D
:100AF000291346C02B8190918F00291341C0109279
:100B0000030281E00E94BB0784EB91E00E94F4079E
:100B10002FEF89E698E1215080409040E1F700C036
:100B2000000081E00E94BB0760E080E00E940708AF
:100B30008AEC90E00E94F40760E087E00E940708DA
:100B400081ED90E00E94F40761E080E00E940708D8
:100B500089ED90E00E94F40761E087E00E940708B9
:100B600080EE90E00E94F4070E94390B0E942C0155
:100B70000E94390B8334E1F781E00E94BB0785C0F6
:100B80009091880089134DC09981809189009813B4
:100B900048C09A8180918A00981343C09B818091BC
:100BA0008B0098133EC01092030281E00E94BB07A5
:100BB00081EC91E00E94F4072FEF89E698E1215043
:100BC00080409040E1F700C0000081E00E94BB0738
:100BD00060E080E00E9407088AEC90E00E94F40741
:100BE00060E087E00E94070881ED90E00E94F40732
:100BF00061E080E00E94070889ED90E00E94F40720
:100C000061E087E00E94070880EE90E00E94F40710
:100C10000E94390B0E942C010E94390B8334E1F7AA
:100C200034C080910302811115C0311113C081E0DD
:100C3000809303020E94BB078EEC91E00E94F407B0
:100C40002FEF85EA9EE0215080409040E1F700C000
:100C500000001BC08130A1F482E08093030281E098
:100C60000E94BB078BED91E00E94F4072FEF85EA0D
:100C70009EE0215080409040E1F700C0000005C098
:100C8000823009F02CCE0E94B400DF91CF910895FC
:100C90000F931F93CF930E94AF008334E1F781E05D
:100CA0000E94BB0760E080E00E94070882EF91E0AD
:100CB0000E94F407C0E02CC061E08C2F0E9407085E
:100CC0000C2F10E00E94AF00F801EF5EFD4F808313
:100CD0002FEF89EF90E0215080409040E1F700C075
:100CE0000000608170E080E090E00E9439082FEF02
:100CF00089EF90E0215080409040E1F700C0000073
:100D000061E08C2F0E9407088AE20E94A107CF5F52
:100D1000C43090F2CF911F910F910895FF920F93DD
:100D20001F93CF93DF93CDB7DEB728970FB6F89414
:100D3000DEBF0FBECDBF198281E08A8382E08B8344
:100D400083E08C8384E08D8385E08E8386E08F83CF
:100D500087E0888700E010E024C0E5E0F0E0EC0FD9
:100D6000FD1FE10FF11DF08040E06F2D82E00E9439
:100D7000E10841E06F2D82E00E945409E1E0F0E0DB
:100D8000EC0FFD1FE00FF11DF08041E06F2D82E0C0
:100D90000E94E10841E06F2D82E00E9454091F5F2C
:100DA0000F5F143010F40430C0F228960FB6F89498
:100DB000DEBF0FBECDBFDF91CF911F910F91FF908E
:100DC0000895AF92BF92CF92DF92EF92FF920F936E
:100DD0001F93CF93DF93CDB7DEB728970FB6F89464
:100DE000DEBF0FBECDBF198281E08A8382E08B8394
:100DF00083E08C8384E08D8385E08E8386E08F831F
:100E000087E08887B12C44C0CB2CD12CE1E0F0E006
:100E1000EC0FFD1FEC0DFD1DA08040E06A2D82E06F
:100E20000E94540910E02CC0E12EF12CE5E0F0E026
:100E3000EC0FFD1FEE0DFF1D0081602F82E00E9470
:100E4000C70981111CC0C701880F991F880F991FFE
:100E500084569F4FFC01EC0DFD1D10812FEF80E7A4
:100E600092E0215080409040E1F700C00000602FE8
:100E700082E00E94C7098823D1F3812F0EC01F5F33
:100E8000143090F241E06A2D82E00E945409B3943C
:100E900023E02B1508F0B8CF8FEF28960FB6F89403
:100EA000DEBF0FBECDBFDF91CF911F910F91FF909D
:100EB000EF90DF90CF90BF90AF9008950F931F9366
:100EC000CF93DF9300D000D0CDB7DEB7082F84E0FA
:100ED000898385E08A8386E08B8387E08C8310E0BA
:100EE00014C0402F50E0012E02C0559547950A943A
:100EF000E2F74170E1E0F0E0EC0FFD1FE10FF11DC2
:100F0000608180E00E9454091F5F143050F30F90FD
:100F10000F900F900F90DF91CF911F910F91089537
:100F200041E062E081E00E9454098FE39FE1019774
:100F3000F1F700C0000040E062E081E00E94540947
:100F40000895CF93C82F41E060E081E00E945409EA
:100F500040E061E081E00E9454098C2F82958F70FF
:100F60000E945E070E9490078C2F0E945E070E94DD
:100F70009007CF910895CF93C82F40E060E081E0C3
:100F80000E94540940E061E081E00E9454098C2FE6
:100F900082958F700E945E070E9490078C2F0E949E
:100FA0005E070E949007CF9108952FEF83EF91E0A5
:100FB000215080409040E1F700C0000082E00E9494
:100FC0005E070E94900782E00E945E070E949007E1
:100FD00088E00E945E070E9490078CE00E94BB0799
:100FE00081E00E94BB0708950F931F93CF938C015C
:100FF000C0E003C00E94A107CF5FF801EC0FF11D14
:1010000080818111F7CFCF911F910F91089590E4C6
:10101000699F800D112480680E94BB070895EF929C
:10102000FF920F931F93CF93DF93D82F8B01F42E52
:10103000E22E880F880F880F8F7780640E94BB078D
:10104000C0E007C0F801EC0FF11D80810E94A107EC
:10105000CF5FC830B8F36E2D8F2D0E9407088D2FFB
:101060000E94A107DF91CF911F910F91FF90EF9008
:1010700008951F93CF93DF93CDB7DEB72A970FB6AE
:10108000F894DEBF0FBECDBF6115710581059105D6
:10109000D1F480E30E94A1072CC02AE030E040E0B8
:1010A00050E00E94690DE1E0F0E0EC0FFD1FE10F60
:1010B000F11D17FDFA95605D6083622F732F842FF9
:1010C000952F1F5F01C010E0611571058105910525
:1010D00021F711500CC0E1E0F0E0EC0FFD1FE10F33
:1010E000F11D17FDFA9580810E94A107115011236F
:1010F00094F72A960FB6F894DEBF0FBECDBFDF91EE
:10110000CF911F9108958FB58E7F8FBD8FB582606F
:101110008FBD8EB588608EBD8EB580618EBD8EB55B
:10112000887F8EBD8EB582608EBD8FB58F7B8FBD63
:101130008FB580688FBD8CEE93E197BD86BD089515
:10114000853B08F084EB682F70E080E090E00E941F
:101150005C0C2AE939E941E351E40E94E80C20E003
:1011600030E04AE754E40E944D0B20E030E04AE7CB
:1011700054E40E944D0B0E942B0C7BBD6ABD089568
:1011800087B18F7787B987B1806487B986B1887F47
:1011900086B986B1876086B986B1806886B90895B8
:1011A00097B1907E97B997B1892B87B986B1806442
:1011B00086B9349BFECF86B1806186B984B195B182
:1011C0000895423008F06FC04130A1F5813089F0B8
:1011D00028F08230C9F0833011F108952AB381E0FC
:1011E00090E002C0880F991F6A95E2F7822B8ABBB4
:1011F000089527B381E090E002C0880F991F6A9597
:10120000E2F7822B87BB089524B381E090E002C00F
:10121000880F991F6A95E2F7822B84BB089521B34A
:1012200081E090E002C0880F991F6A95E2F7822B57
:1012300081BB0895411137C0813091F028F0823090
:10124000D9F0833029F108952AB381E090E002C0FB
:10125000880F991F6A95E2F7809582238ABB0895CB
:1012600027B381E090E002C0880F991F6A95E2F7EA
:101270008095822387BB089524B381E090E002C06B
:10128000880F991F6A95E2F78095822384BB0895A1
:1012900021B381E090E002C0880F991F6A95E2F7C0
:1012A0008095822381BB0895423008F06FC04130A1
:1012B000A1F5813089F028F08230C9F0833011F136
:1012C00008952BB381E090E002C0880F991F6A95C2
:1012D000E2F7822B8BBB089528B381E090E002C037
:1012E000880F991F6A95E2F7822B88BB089525B372
:1012F00081E090E002C0880F991F6A95E2F7822B87
:1013000085BB089522B381E090E002C0880F991F49
:101310006A95E2F7822B82BB0895411137C0813074
:1013200091F028F08230D9F0833029F108952BB361
:1013300081E090E002C0880F991F6A95E2F78095DE
:1013400082238BBB089528B381E090E002C0880F10
:10135000991F6A95E2F78095822388BB089525B38B
:1013600081E090E002C0880F991F6A95E2F78095AE
:10137000822385BB089522B381E090E002C0880FEC
:10138000991F6A95E2F78095822382BB0895813088
:1013900079F028F08230A9F08330E1F024C089B3DD
:1013A00090E002C0959587956A95E2F7817008955F
:1013B00086B390E002C0959587956A95E2F78170B3
:1013C000089583B390E002C0959587956A95E2F7FA
:1013D0008170089580B390E002C0959587956A95D5
:1013E000E2F78170089580E00895813041F028F09F
:1013F000823039F0833039F008956ABB089567BBB5
:10140000089564BB089561BB08958FB780688FBF4E
:10141000089593B7986093BF93B7906493BF93B7C1
:10142000987F93BF93B7936093BF93B7906293BF36
:10143000613021F493B79F7E93BF05C0611103C053
:1014400093B7906193BF853608F084E6613051F41C
:101450002FEF829FC001112464E670E00E94550DB9
:101460006CBF089564E670E09B01281B31094FEFC3
:10147000429FC001439F900D11240E94550D6CBFE7
:1014800008951F920F920FB60F9211242F933F933E
:101490004F935F936F937F938F939F93AF93BF937C
:1014A000EF93FF93E0910402F09105020995FF91FB
:1014B000EF91BF91AF919F918F917F916F915F91CC
:1014C0004F913F912F910F900FBE0F901F90189545
:1014D0001F920F920FB60F9211242F933F934F93A9
:1014E0005F936F937F938F939F93AF93BF93EF938C
:1014F000FF93E0910602F09107020995FF91EF91A9
:10150000BF91AF919F918F917F916F915F914F911B
:101510003F912F910F900FBE0F901F9018951F9223
:101520000F920FB60F9211242F933F934F935F9317
:101530006F937F938F939F93AF93BF93EF93FF939B
:10154000E0910802F09109020995FF91EF91BF9196
:10155000AF919F918F917F916F915F914F913F914B
:101560002F910F900FBE0F901F9018951F920F9202
:101570000FB60F9211242F933F934F935F936F9366
:101580007F938F939F93AF93BF93EF93FF93E091DC
:101590000A02F0910B020995FF91EF91BF91AF9173
:1015A0009F918F917F916F915F914F913F912F917B
:1015B0000F900FBE0F901F9018951F920F920FB6AD
:1015C0000F9211242F933F934F935F936F937F93C9
:1015D0008F939F93AF93BF93EF93FF93E0910C0290
:1015E000F0910D020995FF91EF91BF91AF919F91FD
:1015F0008F917F916F915F914F913F912F910F90BC
:101600000FBE0F901F9018951F920F920FB60F925A
:1016100011242F933F934F935F936F937F938F93F7
:101620009F93AF93BF93EF93FF93E0910E02F091DE
:101630000F020995FF91EF91BF91AF919F918F910B
:101640007F916F915F914F913F912F910F900FBEBE
:101650000F901F90189586E880BD87E689B98AB1FA
:1016600088608AB98AB180618AB98AB18F778AB96C
:1016700008955F9BFECF8CB108951F920F920FB615
:101680000F9211248F938CB1809310028F910F9041
:101690000FBE0F901F9018955058BB27AA270E9485
:1016A000640B0C94AE0C0E94A00C38F00E94A70CA6
:1016B00020F039F49F3F19F426F40C949D0C0EF49D
:1016C000E095E7FB0C94970CE92F0E94BF0C58F3B0
:1016D000BA17620773078407950720F079F4A6F517
:1016E0000C94E10C0EF4E0950B2EBA2FA02D0B01FB
:1016F000B90190010C01CA01A0011124FF27591B57
:1017000099F0593F50F4503E68F11A16F040A22F5C
:10171000232F342F4427585FF3CF469537952795CD
:10172000A795F0405395C9F77EF41F16BA0B620BCC
:10173000730B840BBAF09150A1F0FF0FBB1F661F13
:10174000771F881FC2F70EC0BA0F621F731F841F56
:1017500048F4879577956795B795F7959E3F08F07C
:10176000B0CF9395880F08F09927EE0F979587953E
:1017700008950E94CD0B0C94AE0C0E94A70C58F05B
:101780000E94A00C40F029F45F3F29F00C94970CC4
:1017900051110C94E20C0C949D0C0E94BF0C68F348
:1017A0009923B1F3552391F3951B550BBB27AA271A
:1017B00062177307840738F09F5F5F4F220F331F54
:1017C000441FAA1FA9F335D00E2E3AF0E0E832D01C
:1017D00091505040E695001CCAF72BD0FE2F29D01F
:1017E000660F771F881FBB1F261737074807AB07F1
:1017F000B0E809F0BB0B802DBF01FF2793585F4F66
:101800003AF09E3F510578F00C94970C0C94E20C42
:101810005F3FE4F3983ED4F3869577956795B79547
:10182000F7959F5FC9F7880F911D9695879597F952
:101830000895E1E0660F771F881FBB1F62177307CB
:101840008407BA0720F0621B730B840BBA0BEE1FE0
:1018500088F7E09508950E94C70C88F09F5798F08C
:10186000B92F9927B751B0F0E1F0660F771F881FA5
:10187000991F1AF0BA95C9F714C0B13091F00E94BF
:10188000E10CB1E008950C94E10C672F782F8827C4
:10189000B85F39F0B93FCCF3869577956795B395E6
:1018A000D9F73EF490958095709561957F4F8F4F55
:1018B0009F4F0895E89409C097FB3EF4909580955A
:1018C000709561957F4F8F4F9F4F9923A9F0F92F06
:1018D00096E9BB279395F695879577956795B79584
:1018E000F111F8CFFAF4BB0F11F460FF1BC06F5F6A
:1018F0007F4F8F4F9F4F16C0882311F096E911C07C
:10190000772321F09EE8872F762F05C0662371F09C
:1019100096E8862F70E060E02AF09A95660F771FB0
:10192000881FDAF7880F9695879597F9089597F9A4
:101930009F6780E870E060E008959FEF80EC089575
:1019400000240A941616170618060906089500249E
:101950000A9412161306140605060895092E039418
:10196000000C11F4882352F0BB0F40F4BF2B11F48C
:1019700060FF04C06F5F7F4F8F4F9F4F089557FDEB
:101980009058440F551F59F05F3F71F04795880FED
:1019900097FB991F61F09F3F79F087950895121684
:1019A00013061406551FF2CF4695F1DF08C0161630
:1019B00017061806991FF1CF8695710561050894E1
:1019C0000895E894BB2766277727CB0197F90895F8
:1019D0000E94FB0C0C94AE0C0E94A00C38F00E94EC
:1019E000A70C20F0952311F00C94970C0C949D0CEF
:1019F00011240C94E20C0E94BF0C70F3959FC1F36C
:101A0000950F50E0551F629FF001729FBB27F00DAC
:101A1000B11D639FAA27F00DB11DAA1F649F662701
:101A2000B00DA11D661F829F2227B00DA11D621F50
:101A3000739FB00DA11D621F839FA00D611D221F0A
:101A4000749F3327A00D611D231F849F600D211DEE
:101A5000822F762F6A2F11249F5750409AF0F1F071
:101A600088234AF0EE0FFF1FBB1F661F771F881FDA
:101A700091505040A9F79E3F510580F00C94970C6F
:101A80000C94E20C5F3FE4F3983ED4F3869577958F
:101A90006795B795F795E7959F5FC1F7FE2B880F80
:101AA000911D9695879597F9089597FB072E16F443
:101AB000009407D077FD09D00E948B0D07FC05D05C
:101AC0003EF4909581959F4F0895709561957F4F55
:101AD0000895A1E21A2EAA1BBB1BFD010DC0AA1F6F
:101AE000BB1FEE1FFF1FA217B307E407F50720F087
:101AF000A21BB30BE40BF50B661F771F881F991F02
:101B00001A9469F760957095809590959B01AC014A
:101B1000BD01CF010895AA1BBB1B51E107C0AA1F3D
:101B2000BB1FA617B70710F0A61BB70B881F991F7E
:101B30005A95A9F780959095BC01CD010895F89428
:021B4000FFCFD5
:101B42000000000B0A0A0E000000001F050700003B
:101B5200040404040404040000000103060C180039
:101B62000C06031F00000000040404040303030323
:101B72000202020201010101010203040708092F06
:101B82000405062A0102032D43003D2B3D3D3D5332
:101B92004D41525420484F4D453D3D3D00436865FF
:101BA200636B696E67002E2E2E00442D446F6F7298
:101BB200004C2D4C616D707300542D54656D700096
:101BC200512D44696D6D65720041636365737320C5
:101BD20044656E6965640054656D703A0041433A2C
:101BE2000020202020202020202020004C454420BE
:101BF200436F6E74726F6C3A00313A204F4E202F51
:101C020020323A204F464600456E746572204C459C
:101C12004420746F206265204F4E3A00496E76610F
:101C22006C6964204C4544004C616D702000456E27
:101C3200746572204C454420746F204F46463A002A
:101C420044696D6D65722063697263756974004FD2
:101C52004E00446F6F72206F70656E696E672E0062
:101C6200446F6F7220436C6F73696E670048656CD6
:101C72006C6F2C2041646D696E0048656C6C6F2C32
:101C82002055736572310048656C6C6F2C2055735A
:101C92006572320048656C6C6F2C20557365723327
:101CA2000048656C6C6F2C205573657234003220CD
:101CB2007472696573206C65667400312074727980
:101CC200206C6566740048656C6C6F2C41646D69AC
:101CD2006E00456E7465722050617373776F726423
:021CE2003A00C6
:00000001FF
